:100000000210812001030203D27E7300227A730062
:10001000087E340023120BC17A1F00097E7300276B
:100020007A7300197E3400287A37001BE47AB30013
:100030001DE47AB3001A7EB300082460BEB00C4001
:10004000030203BE7EA003A490004C730200700262
:1000500000970200A00200E50203A502014402018C
:10006000790202C002030E02034E0203870201C896
:100070007EB30021BEB001680974FF7AB3001D028F
:1000800003C474027AB3012174067AB301227402A4
:100090007AB3001A0203C474017AB3001D0203C4C8
:1000A0001210F2400974067AB3001D0203C47E7375
:1000B00000197E60062C677E730021BC7668097487
:1000C000FF7AB3001D0203C47E1F00097E17001BC8
:1000D0007EB300191208DB50030203C474037AB321
:1000E000001D0203C41210F2400974067AB3001D09
:1000F0000203C47EB30021BEB001680974FF7AB365
:10010000001D0203C47E1810007A1F0009802243DC
:10011000C1107E1F0009120E1F400874047AB3003C
:100120001D801E7E0802007E1F00092F107A1F000E
:10013000097E14C8007E0400037E1F0009BF104022
:10014000CE0203C41210F2400974067AB3001D02F5
:1001500003C47EB30021BEB006680974FF7AB30001
:100160001D0203C47E1F0009120E1F50030203C4A8
:1001700074047AB3001D0203C47EB30021BEB0092B
:10018000680974FF7AB3001D0203C47E340027128D
:100190000BC17A1F000D7E1800157A1F02547E1FB6
:1001A00000097E0F000D1206C7400974027AB300E1
:1001B0001D0203C47E3401217E0F0015120DD2747E
:1001C000047AB3001A0203C47EB30021BEB00668ED
:1001D0000974FF7AB3001D0203C47EB30019BEB0D8
:1001E00000680A7EA30019743CBCAB280974027A2B
:1001F000B3001D0203C47E1F0009120FF6400974EC
:10020000027AB3001D0203C46D227E0F00097E3402
:1002100001FF5D31BD32680974027AB3001D02032B
:10022000C47E1F00097E14C8007E0400039F017471
:10023000091E141E0450034E20801478F47E7300AF
:10024000190A376D22BF10280974027AB3001D0203
:1002500003C4E47AB3001A80507E18000D7A1F029E
:10026000547E1F00097E0802001206C7400D74026A
:100270007AB3001DE47AB3001A80427E73001A0A32
:10028000277E3401212D327E0F000D120DD27E63A8
:10029000001A7E70042C767A73001A7E0802007EA3
:1002A0001F00092F107A1F00097EA300197E70011C
:1002B0007CBA9CB77AB30019BEA000789C0203C434
:1002C0007EB30021BEB001680974FF7AB3001D023D
:1002D00003C47E0800117E180015120D1C7AB300AD
:1002E0001E74017AB301217E73001E7A7301227E8F
:1002F0003401237E0F0011120DD27E3401277E0FB0
:100300000015120DD2740A7AB3001A0203C47EB328
:100310000021BEB009680974FF7AB3001D0203C44E
:100320007E340023120BC17A1F00117E3400271285
:100330000BC17A1F00157E1F00117E0F00151209D8
:100340008A50030203C474077AB3001D80767EB31B
:100350000021BEB001680874FF7AB3001D80659F5C
:10036000117A1F00157E080015120CAD40067405A9
:100370007AB3001D7E3401217E0F0015120DD27458
:10038000047AB3001A803D7EB30021BEB001680834
:1003900074FF7AB3001D802C120F6A402774067A0E
:1003A000B3001D801F7EB30021BEB001680874FF3A
:1003B0007AB3001D800E7420F5C780FE800674019C
:1003C0007AB3001D7EB3001D7E73001A120A241238
:1003D00010C1227F707F517EC400007ED4024C7E0B
:1003E0009403E60204204005E47A7BB0227A7BB0D5
:1003F0000B7C22540F2490D43440D430F30CBEB084
:10040000414007BEB05B500224204CCC68021BC0A8
:100410000B84D389944CCC680B742012040A80F5A9
:10042000CA3B6D889F337CAE7E5BB00B5C7007C3AC
:100430007D38DA3B8994B42569C2F37E5BB00B5CEE
:10044000A5F824D0BEB00A501B7E500A20F60DAC91
:100450005CA52D7CCB70034EF00180DDAC5DA52D3D
:100460007CDB80D524CFBEB01AA5E850055E00DF46
:10047000D2F3900696A3E4936011BCB078F774149D
:10048000934CAB30F6B34EF08080AEA3E493601093
:10049000BCB078F77413937C3B741D937C2B891448
:1004A0007CB08013742012040A20F205BEC00250F2
:1004B000F31B6D29B6000112040A0204151B6E69B4
:1004C0001600020B6A00BE08000078087E0400FFD8
:1004D0007E14110B20F21E4CCC681A7F10E47E1B98
:1004E000804C8868070B1C04BCBD78F2C2F6CA0BAE
:1004F0001205F4DA0B7E0BB060C0CA0B12040ADAE4
:100500000B0B0C4CDD68EE1BD078EA80ADD2F07E90
:10051000101080037E10085EB05F800AD2F67E1055
:100520000A80057E100AC2F66D119F117E00201B05
:100530006C7E6B7030F6021A3720F1051B6C7E6BF7
:100540006030F6041A261A2430F0051B6D0B6A2061
:10055000A5EC3382F692F6500A7CEA9F229F217F17
:10056000127CAE4C44780F7C457C567C676C772EB1
:1005700000F878EF80122F117CB3337C3B9CB140A4
:10058000047C3B0B70A5D8EE7CB230E005DAB8C431
:100590004C3BCA380B207E00207E3000BE18000085
:1005A00078C1BE1008780730F404C2F480B5CA28B8
:1005B0007CB2BCBD38027CBD1205F4DA28BC2D50DB
:1005C0000A1BD0E4CA281203F380F07CB213DAB815
:1005D0004004C4CAB8C4CA28BEF08040095CDD78B3
:1005E00005A5DA0260065EF07F1203F3DA28A5DAC9
:1005F000DA020415BEF001680F30F402240220F57F
:100600000620F70330F6010420F229BCBC5025CAAD
:10061000B87CBF13B0E67420501174307C8A5E80C1
:10062000F068081206345EA00F800312040ADAB8DC
:10063000BCBC78DB30F40F743012040A745830F309
:1006400002747812040A30F605742D02040A742B21
:1006500020F5F8742020F7F3221B6C7E6BB010F1AC
:10066000021B6C20F60B30E704F404D2F27CCB8042
:100670000520E7057CDB0204395EF07F80F81B6E05
:10068000691600020B6A0030F0076D221B0A200B6E
:100690000D1B0A800204242D2B204C4248232E00DF
:1006A00053584F44494355502A4E000420800102BC
:1006B000001040BD0F141C1CA9230D597E04050514
:1006C000050504050506067A0F02507A1F024C7EC6
:1006D0001F02504D2368097E1F024C120FF6400482
:1006E000C30208047E1F024C7E14C8007E0400036F
:1006F0009F017E1F0250BF102804C30208047E1C05
:10070000FFFF7A1F02587E1438007E0400FC7E1F13
:10071000024C2F107A1F024C0207D57E1F024C7E1E
:100720000800012F017A0F024C120F127AB3025CFB
:100730007E73025C0A176D007E1F02586D316D20BA
:100740007A1F02587D237E34000F5D326D220A37F6
:100750006D227F012F002F007E34110F7E2400FFB9
:100760002F10691100020B1A007E1F025874041E1C
:10077000341E2450034E60801478F46D316D207A5D
:100780001F02587D237E34000F5D326D220A376DC3
:10079000227F012F002F007E34110F7E2400FF2FB7
:1007A00010691100020B1A007E1F025874041E34D7
:1007B0001E2450034E60801478F46D316D207A1F32
:1007C00002586D227E0F02507E3401FF5D31BD3232
:1007D000780343C1107E1F02507E2800017F019FD5
:1007E000027A0F02504D23680302071B7E1CFFFF95
:1007F0007E0F02586D026D137E1F025479110002A4
:100800001B1A00D3222098030208DAC3C298E59984
:100810007AB302C97E7302232C7B7A7302237EB3E0
:10082000022214682E14684714687B1478030208A7
:10083000BE0BB268030208DA7EB302C97AB30223A0
:10084000BEB02378057E700180026C777A73022235
:100850000208DA7E7302C97A730021E47AB30221B6
:100860007E6302227E70012C767A730222806B7E78
:10087000A302C97E7302217E60012C677A63022184
:100880000A277E3400222D327A39A07E6300217E31
:10089000730221BC7640437E6302227E70012C7677
:1008A0007A73022280347EB302C9BEB02478897E76
:1008B0006302227E70012C767A730222801C7EB342
:1008C0000223BEB0006803020838D3D2017E63025F
:1008D000227E70012C767A730222227AB302637A26
:1008E0001702617A1F025D7EB30263BEB000680921
:1008F0007E1F025D120FF64004C30209897E1F02AB
:100900005D7E14C8007E0400039F017E7302630AAB
:10091000376D22BF102803C3806F7E1438007E0419
:1009200000FC7E1F025D2F107A1F026480467E3716
:1009300002617E39B0BEB0FF680E7E1F02647E1772
:1009400002617E19B0120EDD7E0F02647E18000176
:100950002F107A1F02647E2702617E3400012D323F
:100960007A3702617EA30263743F5CBABEB000783E
:100970000343C1107EA302637E70017CBA9CB77AE8
:10098000B30263BEA00078A6D3227A0F027E7A1F3C
:10099000027A7E14B8007E0400037E1F027ABF1024
:1009A0006804C3020A231210FF4003C38075740455
:1009B0007E7001120FD44003C3806874057E707F7F
:1009C000120FD44003C3805B74087E1F027A120D9D
:1009D0007A4003C3804D740C7E1F027E120D7A4054
:1009E00003C3803FE47E7046120FD44003C38033BC
:1009F00074017E7042120FD44003C3802674027EBD
:100A00007053120FD44003C3801974037E703112E7
:100A10000FD44003C3800C120B3EBEB07F7803D3CB
:100A20008001C3227A7302BD7AB302BC74401210F3
:100A3000AC7AB302BE7EB302BC1210AC7E7302BEAF
:100A40002C7B7A7302BE7EB302BD1210AC7E7302A1
:100A5000BE2C7B7A7302BE7EB302BDBEB000683C82
:100A6000E47AB302BF80297E7302BF0A277E340175
:100A7000212D327E39B01210AC7E7302BE2C7B7AEF
:100A80007302BE7E6302BF7E70012C767A7302BF52
:100A90007E6302BD7E7302BFBC7640CB742412100D
:100AA000AC7E7302BE2C7B7A7302BE7EB302BE6440
:100AB000FF041210AC3099FD22D3A9D7BA90FFFCE5
:100AC000693E00020BEA207A1F02B87E0F02B87E50
:100AD00034CD347E2412ABBF017803D38001C3929E
:100AE0000053B1F774087E14FE137E04007E7E0B63
:100AF000704C7B7A0B70120FB11210D4A2B3E43396
:100B0000BEB000681D20001A121067401543B108DE
:100B1000E47E34FE137E24007E7A1BB07420F5C779
:100B200080FE43B108E47E34FE137E24007E7A1BEF
:100B3000B09F1190FFFC793E00021BEA2022E412D4
:100B4000104DBEB046680474FF8075740112104DDC
:100B5000BEB042680474FF8067740212104DBEB0CC
:100B600053680474FF8059740312104DBEB031688D
:100B70000474FF804B740412104DBEB001680474FD
:100B8000FF803D7408120C3A7E14B8007E04000306
:100B9000BF10680474FF8028740512104D7AB302E8
:100BA000C6BEB07F68167EB302C6BEB03F680D7E7B
:100BB000B302C6BEB01F680474FF80047EB302C6D1
:100BC000227A3702887E39700A376D227C476C554D
:100BD0006D337A1F028A7E2400017E3702882D320F
:100BE0007E39700A376D227D036D117E1F028A4D9A
:100BF000314D207A1F028A7E2400027E3702882D22
:100C0000327E39700A376D227C057C167C276C3366
:100C10007E1F028A4D314D207A1F028A7E240003F6
:100C20007E3702882D327E39700A176D007E1F02D2
:100C30008A4D314D207A1F028A227AB3029E121009
:100C40004D0A3B6D227C476C556D337A1F029F7EA7
:100C5000A3029E74012CBA12104D0A3B6D227D0333
:100C60006D117E1F029F4D314D207A1F029F7EA382
:100C7000029E74022CBA12104D0A3B6D227C057C38
:100C8000167C276C337E1F029F4D314D207A1F0248
:100C90009F7EA3029E74032CBA12104D0A1B6D0096
:100CA0007E1F029F4D314D207A1F029F227A0F0234
:100CB00071120B3E7AB30279BEB07F680C7EB3022C
:100CC00079BEB03F6803C38052740C120C3A7A1F8D
:100CD00002757E1F02717A1F02547E1810007E1466
:100CE000B8007E0400031206C74003C3802D7E1F98
:100CF0000271691100020B1A007E1F0275BF0168A4
:100D000003C380177EB30279BEB07F780D74057E71
:100D1000703F120FD44003C38001D3227A1F026CAC
:100D20007A0F0268120B3E7AB30270BEB0FF7820D1
:100D30009F007E1F0268791100021B1A009F007E2F
:100D40001F026C791100021B1A007EB30270802909
:100D50007E14B8007E0400037E1F02687911000231
:100D60001B1A00740C120C3A7F017E1F026C791161
:100D700000021B1A007EB30270227A1F02A47AB30B
:100D800002A37E1F02A47C74120FD44003C38041CF
:100D90007EA302A374012CBA7E1F02A47C75120FDD
:100DA000D44003C3802B7EA302A374022CBA7E1FFF
:100DB00002A47C76120FD44003C380157EA302A345
:100DC00074032CBA7E1F02A4120FD44003C3800107
:100DD000D3227A0F02907A37028E7E1F02907C54C3
:100DE0007E37028E7A39507E1F02907E1400017E7B
:100DF00037028E2D317A39507E1F02907C567E1438
:100E000000027E37028E2D317A39507E1F02907C8F
:100E1000577E1400037E37028E2D317A3950227AA4
:100E20001F02B4120FF64003C380386D227E0F02FA
:100E3000B47E3401FF5D31BD326803C380257E146A
:100E4000C6007E0400037E1F02B4BF102803C380C7
:100E5000127E1438007E0400FC7E1F02B42F101294
:100E60000F3FD3227A1F0282120F3F6D337A37026F
:100E70008680257E1702866D007E1F02822F10124B
:100E80000F12BEB0FF6803C3801B7E2702867E342C
:100E900000012D327A3702867E2702867E340200D8
:100EA000BD2340CFD3223000067E34FFE280047E93
:100EB00034FFF47A3702C4C3A9C08E7452F5985334
:100EC000890FD3A9D68E7E5702C4F58B7E3702C414
:100ED0007D530A5AF58DD3D28E1210C1227AB302F5
:100EE000987A1F02947402F5C57E1F02947CB5F5B2
:100EF000F67E1F02947CB6F5C37E2F0294F5C47E65
:100F0000B30298F5C2745AF5C674A5F5C600000080
:100F100000227A1F02B07401F5C57E1F02B07CB5B5
:100F2000F5F67E1F02B07CB6F5C37E2F02B0F5C485
:100F3000745AF5C674A5F5C600000000E5C2227A11
:100F40001F02A87403F5C57E1F02A87CB5F5F67EC6
:100F50001F02A87CB6F5C37E2F02A8F5C4745AF50B
:100F6000C674A5F5C60000000022120B3E7AB3023B
:100F7000C8BEB01F7803D380147EB302C8BEB03F92
:100F80006803C3800874057E701F120FD4227AB3E1
:100F9000029D7A1F02997EB3029D120EDD7E1F0212
:100FA00099120F127EA3029DBCBA7803D38001C3AD
:100FB000226D337A3702C2800E7E2702C27E340051
:100FC000012D327A3702C27E2702C27E347530BDCF
:100FD0002348E6227A7302C17AB302C07E7302C04C
:100FE0000A176D007E3446007E2400FC2F107EB36D
:100FF00002C1120F8E227A1F02ACBE1810004013DD
:101000007E14C8007E0400037E1F02ACBF10500394
:10101000D38001C3221210979F007E34114F7E248B
:1010200000FF1203D37E14114F7E0400FF1210E460
:101030002230000474048001E4F5E9E4F5EAD3A960
:10104000D7BA53B2FC53B1FC7437F5C1227AB3005E
:101050001F7E73001F0A176D007E3446007E240039
:10106000FC2F10120F1222120B3E7AB302C7BEB031
:101070007F68097EB302C7BEB03F7803D38001C347
:10108000227584017E44041FE47A49B01B4478F938
:101090007EF802CA021015120AB9121031120EA6F9
:1010A00043C11012080512000380F5227AB302CA68
:1010B0003099FDC3C2997EB302CAF5997EB302CAC4
:1010C00022C3C201E47AB30221E47AB30222E47AB1
:1010D000B30223227480F5C7300004747880027450
:1010E00030F5F5226D3380020B347E0BB00B14709B
:1010F000F722120B3EBEB07F7803D38001C3227E5D
:101100003446007E2400FC120E64222830290000A0
:101110000000001DB710643B6E20C826D930AC76A5
:10112000DC41906B6B51F44DB261585005713CED50
:10113000B88320F00F9344D6D6A3E8CB61B38C9B41
:1011400064C2B086D3D2D4A00AE278BDBDF21C300E
:01115000009E
:00000001FF
