:10000000020CCDCA3B20010302034B7E7300227A0F
:100010007302247E340023120B8B7F317E73002702
:100020007A7302317E3400287A370233E47AB302DD
:10003000357AB302327EB302242460BEB00C400392
:100040000203377EA003A490004B7302006F0200EE
:100050008B02008E0200B90203210200F602012980
:1000600002024502028D0202CA0203030201767EE9
:10007000B30021BEB0016802805174027AB301213D
:1000800074067AB30122740202016F020337120D63
:100090007F400280297EA302317CBA2406BEB300D1
:1000A00021680280267F137E1702337CBA1208482B
:1000B000500302033D74038044120D7F4004740614
:1000C000803B7EB30021BEB001680474FF802E7EA9
:1000D0003810007F13120B20400974047AB30235E4
:1000E00002033D2E3802007E34C8007E240003BF88
:1000F0003140E002033D120D7F400974067AB302DD
:100100003502033D7EB30021BEB006680974FF7A54
:10011000B3023502033D7F13120B20500302033D4F
:1001200074047AB3023502033D7EB30021BEB009E8
:10013000680974FF7AB3023502033D7E340027124A
:100140000B8B7A1F02257E18022D7A1F023F7F1328
:100150007E0F0225120642400974027AB30235026C
:10016000033D7E3401217E0F022D120D0A74047AA4
:10017000B3023202033D7EB30021BEB006680974AB
:10018000FF7AB3023502033D7E7302314C77680576
:10019000BE703C280974027AB3023502033D7F1316
:1001A000120C9E400974027AB3023502033D7D377A
:1001B0005E3401FF680974027AB3023502033D7EA2
:1001C00014C8007E0400039F0374091E141E04500B
:1001D000034E20801478F47E7302310A376D22BFFB
:1001E00010280974027AB3023502033DE47AB3029F
:1001F0003280407E1802257A1F023F7F137E08025C
:1002000000120642400E74027AB30235E47AB30259
:100210003202033D7E7302320A372E3401217E0FF3
:100220000225120D0A7EB302320BB27AB302322ECD
:100230003802007EA302317CBA147AB302314CAA90
:1002400078B102033D7EB30021BEB001680974FF9E
:100250007AB3023502033D7E0802297E18022D1270
:100260000A927CAB74017AB301217AA301227E3415
:1002700001237E0F0229120D0A7E3401277E0F0210
:100280002D120D0A740A7AB3023202033D7EB300C6
:1002900021BEB009680974FF7AB3023502033D7EBE
:1002A000340023120B8B7A1F02297E340027120B95
:1002B0008B7A1F022D7E1F02297E0F022D12073717
:1002C000407B74077AB3023580737EB30021BEB0E1
:1002D00001680874FF7AB3023580629F117A1F02A9
:1002E0002D7E08022D12098A400674057AB3023564
:1002F0007E3401217E0F022D120D0A74047AB3029E
:1003000032803A7EB30021BEB001680874FF7AB330
:1003100002358029120CB6402474067AB302358067
:100320001C7EB30021BEB001680874FF7AB30235A9
:10033000800B75C72080FE74017AB302357EB3024C
:10034000357E730232120A47120D1CDA3B227F708F
:100350007F517EC400007ED4024C7E940361020370
:100360009B4005E47A7BB0227A7BB00B7C22540F51
:100370002490D43440D430F30CBEB0414007BEB01A
:100380005B500224204CCC68021BC00B84D38994A0
:100390004CCC680B742012038580F5CA3B6D889F96
:1003A000337CAE7E5BB00B5C7007C37D38DA3B8973
:1003B00094B42569C2F37E5BB00B5CA5F824D0BE73
:1003C000B00A501B7E500A20F60DAC5CA52D7CCBEC
:1003D00070034EF00180DDAC5DA52D7CDB80D52463
:1003E000CFBEB01AA5E850055E00DFD2F39006112B
:1003F000A3E4936011BCB078F77414934CAB30F65F
:10040000B34EF08080AEA3E4936010BCB078F77474
:1004100013937C3B741D937C2B89147CB0801374E4
:100420002012038520F205BEC00250F31B6D29B6D1
:1004300000011203850203901B6E691600020B6A0D
:1004400000BE08000078087E0400FF7E140D89209D
:10045000F21E4CCC681A7F10E47E1B804C88680723
:100460000B1C04BCBD78F2C2F6CA0B12056FDA0B86
:100470007E0BB060C0CA0B120385DA0B0B0C4CDD8F
:1004800068EE1BD078EA80ADD2F07E101080037E3B
:1004900010085EB05F800AD2F67E100A80057E10DA
:1004A0000AC2F66D119F117E00201B6C7E6B7030AE
:1004B000F6021A3720F1051B6C7E6B6030F6041AC9
:1004C000261A2430F0051B6D0B6A20A5EC3382F64A
:1004D00092F6500A7CEA9F229F217F127CAE4C4408
:1004E000780F7C457C567C676C772E00F878EF801F
:1004F000122F117CB3337C3B9CB140047C3B0B70CE
:10050000A5D8EE7CB230E005DAB8C44C3BCA380B53
:10051000207E00207E3000BE18000078C1BE10088A
:10052000780730F404C2F480B5CA287CB2BCBD3868
:10053000027CBD12056FDA28BC2D500A1BD0E4CA1C
:100540002812036E80F07CB213DAB84004C4CAB833
:10055000C4CA28BEF08040095CDD7805A5DA0260D7
:10056000065EF07F12036EDA28A5DADA020390BE87
:10057000F001680F30F402240220F50620F7033062
:10058000F6010420F229BCBC5025CAB87CBF13B0C8
:10059000E67420501174307C8A5E80F06808120581
:1005A000AF5EA00F8003120385DAB8BCBC78DB30E5
:1005B000F40F7430120385745830F3027478120308
:1005C0008530F605742D020385742B20F5F8742010
:1005D00020F7F3221B6C7E6BB010F1021B6C20F62F
:1005E0000B30E704F404D2F27CCB800520E7057CD5
:1005F000DB0203B45EF07F80F81B6E691600020B0D
:100600006A0030F0076D221B0A200B0D1B0A8002C6
:10061000039F2D2B204C4248232E0053584F444912
:100620004355502A4E000420800102001040388AB1
:100630008F9797249E88D4F90404040404040404C6
:100640000505CA3B7A0F023B7F317E1F023B4D23DB
:1006500068077F13120C9E4004C30207347E14C83F
:10066000007E0400039F037E1F023BBF102804C3CB
:100670000207347E1CFFFF7A1F02432E6400FC2E0B
:100680003838000207097F130B3C120C1A7AB302A8
:10069000470A3B6E3702457E2702437A1F02437D9D
:1006A000135E14000F6D000A137F202F222F222EBD
:1006B0004400FF2E280D8D691200020B2A007404DD
:1006C0001E341E2450034E60801478F46D316D206A
:1006D0007A1F02437D135E14000F6D000A137F2002
:1006E0002F222F222E4400FF2E280D8D691200028A
:1006F0000B2A0074041E341E2450034E60801478AC
:10070000F46D316D207A1F02437E1F023B7F011B77
:100710000C7A0F023B4D2368030206867E0F0243CC
:100720006E04FFFF6E14FFFF7E1F023F791100026F
:100730001B1A00D3DA3B22CA3B7A0F02367F317E86
:1007400034B8007E240003BF316803C38079120DE2
:10075000744003C3807174047E7001120CF740036F
:10076000C3806474057E707F120CF74003C380570A
:1007700074087F13120ADB4003C3804B740C7E1F86
:100780000236120ADB4003C3803DE47E7046120C41
:10079000F74003C3803174017E7042120CF74003AE
:1007A000C3802474027E7053120CF74003C3801779
:1007B00074037E7031120CF74003C3800A1208B430
:1007C000B47F03D38001C3DA3B2230987AC2987E8B
:1007D00061997C762E6302237A6302237EA3022230
:1007E0007CBA14681C14682714684414684A0BB255
:1007F00078557A730223A5BF230474018045E480F1
:10080000427A730021E47AB302217CBA0480347EF8
:100810006302217CB6047AB302210A2619720022EF
:100820007E630021BE630221381D7CBA048014A5BA
:10083000BF24BF7CBA04800B7EB3022370B4D20104
:100840007CBA047AB3022222CAD8CA797CDB7D71D1
:100850007A1F02364CDB68097E1F0236120C9E405E
:1008600003C3804B7E1F02367E54C8007E440003C3
:100870009F210A1D6D00BF022803C380322E240071
:10088000FC2E1838007A1F023A801B7E79B0BEB069
:10089000FF68077E1F023A120BDA7E1F023A0B1C1A
:1008A0007A1F023A0B747CAD1BD04CAA78DDD3DAE8
:1008B00079DAD822E4120D2CBEB046680374FF2208
:1008C0007401120D2CBEB042680374FF2274021230
:1008D0000D2CBEB053680374FF227403120D2CBE9E
:1008E000B031680374FF227404120D2CBEB001688D
:1008F0000374FF2274081209F17E14B8007E04000C
:1009000003BF10680374FF227405120D2CBEB07F64
:10091000680DBEB03F6808BEB01F680374FF222296
:10092000CA3BA9D7BA90FFFC691E00020BEA007E01
:1009300034CD347E2412ABBF017803D38001C3923F
:100940000053B1F77E74FE137E64007E7E3BB0449C
:10095000087A3BB0120C85120D3BA2B3E433681445
:10096000200011120D4A400C43B108E47A3BB075E7
:10097000C72080FE43B108E47A3BB09F1190FFFC92
:10098000793E00021BEA20DA3B22CA3B7F30120884
:10099000B47AB3023ABEB07F680C7EB3023ABEB0FE
:1009A0003F6803C38048740C1209F17A1F02367A3B
:1009B0003F023F7E1810007E14B8007E0400031230
:1009C00006424003C38027691300020B3A007E1FD2
:1009D0000236BF016803C380157EB3023AB47F0DAF
:1009E00074057E703F120CF74003C38001D3DA3BDD
:1009F00022CAF87CFB120D2C6D227C4B6D337A1FC2
:100A0000023B7CBF04120D2C0A3B7D237E37023D46
:100A10004E27023B7A1F023B7CBF0BB1120D2C7C90
:100A20006B6C774E37023D7E27023B7A1F023B7C80
:100A3000BF2403120D2C0A3B4E37023D7E27023B9A
:100A40007A1F023BDAF822CAD8CA797CF77CEB74A9
:100A500040120D677CDB7CBE120D672CDB7CB7126D
:100A60000D672CDB4CF768156CEE800D0A3E09B360
:100A70000121120D672CDB0BE0BCFE38EF74241251
:100A80000D672CDBE49CBD120D673099FDDA79DA35
:100A9000D822CA3B7F317A0F02361208B47AB302E9
:100AA0003AB4FF119F007E1F0236791100021B1A13
:100AB000009F1180187E14B8007E0400037E1F0280
:100AC00036791100021B1A00740C1209F1793300F7
:100AD000021B3A207EB3023ADA3B22CA3B7F317ACC
:100AE000B3023A7C74120CF74003C380307EB30229
:100AF0003A047C7D120CF74003C380217EB3023A96
:100B00000BB17C7E120CF74003C380117EB3023A16
:100B100024037C7F120CF74003C38001D3DA3B220D
:100B2000CA3B7F31120C9E4003C380287D375E3460
:100B300001FF6803C3801D7E34C6007E240003BF0E
:100B4000312803C3800E7F132E2400FC2E1838009A
:100B5000120C6BD3DA3B22CA3B7F31120C6B6D3324
:100B60007A37023A7E37023A6D222F13120C1ABEE0
:100B7000B0FF6803C380117E37023A0B347A370224
:100B80003ABE34020040DDD3DA3B227D137E197079
:100B90000A376D227C47091100010A517D454D2419
:100BA000091100026D447CA1E47D35093100030A7E
:100BB000134D31223000067E34FFF180047E34FF75
:100BC000FAA9C08E75985253890FA9D68E7CB7F5B5
:100BD0008B0A56F58DD28E020D1CCAF87CFB75C5AA
:100BE000027CB5F5F67CB6F5C37CB7F5C47AF1C2E4
:100BF00075C65A75C6A500000000DAF822CAF87C4E
:100C0000FB7A1F023B120BDA7E1F023B120C1ABC4E
:100C1000BF7803D38001C3DAF82275C5017CB5F52E
:100C2000F67CB6F5C37CB7F5C475C65A75C6A50083
:100C3000000000E5C222120CE39F007E340DCD7E41
:100C40002400FF12034E7E140DCD7E0400FF020D22
:100C50005930000474048001E4F5E975EA00A9D76D
:100C6000BA53B2FC53B1FC75C1372275C5037CB5CC
:100C7000F5F67CB6F5C37CB7F5C475C65A75C6A53E
:100C800000000000226D3380067E3702240B347A88
:100C90003702247E370224BE34753048EC227F218F
:100CA000BE281000400E7E34C8007E240003BF2101
:100CB0005002D322C3221208B4B41F02D322BEB002
:100CC0003F6802C32274057E701F020CF775840111
:100CD0007E44041FE47A49B01B4478F97EF8024B45
:100CE000020C36120920120C51120BB443C110121F
:100CF00007CA12000380F57CA70A3B6D222E240050
:100D0000FC2E1846007CBA020BFD7D537A5900195F
:100D1000150001192500021935000322C201E47AE9
:100D2000B302217AB302227AB30223220A3B6D2254
:100D30002E2400FC2E184600020C1A75C7803000C5
:100D400004747C80027430F5F5221208B4BEB07FC2
:100D50006803B43F02D322C3226D3380020B347E7A
:100D60000BB00B1470F7227CAB3099FDC2997AA1BD
:100D7000997CBA227E3446007E2400FC020B571276
:100D800008B4B47F02D322C3222830290000000017
:100D9000001DB710643B6E20C826D930AC76DC410C
:100DA000906B6B51F44DB261585005713CEDB883B6
:100DB00020F00F9344D6D6A3E8CB61B38C9B64C2DA
:0F0DC000B086D3D2D4A00AE278BDBDF21C3000B9
:00000001FF
