:1000000002105A2001030203CF7E7300227A73008C
:10001000087E340023120B9A7A1F00097E73002792
:100020007A7300197E3400287A37001BE47AB30013
:100030001DE47AB3001A7EB300082460BEB00C4001
:10004000030203BB7EA003A490004C730200700265
:1000500000970200A00200E50203A2020141020192
:10006000760202BD02030B02034B0203840201C5A8
:100070007EB30021BEB001680974FF7AB3001D028F
:1000800003C174027AB3012174067AB301227402A7
:100090007AB3001A0203C174017AB3001D0203C1CE
:1000A0001210CB400974067AB3001D0203C17E739F
:1000B00000197E60062C677E730021BC7668097487
:1000C000FF7AB3001D0203C17E1F00097E17001BCB
:1000D0007EB300191208C550030203C174037AB33A
:1000E000001D0203C11210CB400974067AB3001D33
:1000F0000203C17EB30021BEB001680974FF7AB368
:10010000001D0203C17E1810007A1F0009801F7EA7
:100110001F0009120DF8400874047AB3001D801EF8
:100120007E0802007E1F00092F107A1F00097E142E
:10013000C8007E0400037E1F0009BF1040D10203E7
:10014000C11210CB400974067AB3001D0203C17EB0
:10015000B30021BEB006680974FF7AB3001D020324
:10016000C17E1F0009120DF850030203C174047A06
:10017000B3001D0203C17EB30021BEB0096809743B
:10018000FF7AB3001D0203C17E340027120B9A7A56
:100190001F000D7E1800157A1F02547E1F00097E75
:1001A0000F000D1206C4400974027AB3001D020349
:1001B000C17E3401217E0F0015120DAB74047AB399
:1001C000001A0203C17EB30021BEB006680974FFA5
:1001D0007AB3001D0203C17EB30019BEB000680AE5
:1001E0007EA30019743CBCAB280974027AB3001DCD
:1001F0000203C17E1F0009120FCF400974027AB3B7
:10020000001D0203C16D227E0F00097E3401FF5DD7
:1002100031BD32680974027AB3001D0203C17E1F2A
:1002200000097E14C8007E0400039F0174091E1497
:100230001E0450034E20801478F47E7300190A3790
:100240006D22BF10280974027AB3001D0203C1E4B5
:100250007AB3001A80507E18000D7A1F02547E1F58
:1002600000097E0802001206C4400D74027AB30031
:100270001DE47AB3001A80427E73001A0A277E3486
:1002800001212D327E0F000D120DAB7E63001A7E10
:1002900070042C767A73001A7E0802007E1F000913
:1002A0002F107A1F00097EA300197E70017CBA9C72
:1002B000B77AB30019BEA000789C0203C17EB300D8
:1002C00021BEB001680974FF7AB3001D0203C17E2C
:1002D0000800117E180015120CF57AB3001E740187
:1002E0007AB301217E73001E7A7301227E340123CA
:1002F0007E0F0011120DAB7E3401277E0F00151208
:100300000DAB740A7AB3001A0203C17EB30021BE9A
:10031000B009680974FF7AB3001D0203C17E34007E
:1003200023120B9A7A1F00117E340027120B9A7A3F
:100330001F00157E1F00117E0F0015120963500368
:100340000203C174077AB3001D80767EB30021BE1C
:10035000B001680874FF7AB3001D80659F117A1F91
:1003600000157E080015120C86400674057AB3004D
:100370001D7E3401217E0F0015120DAB74047AB37B
:10038000001A803D7EB30021BEB001680874FF7A78
:10039000B3001D802C120F43402774067AB3001D52
:1003A000801F7EB30021BEB001680874FF7AB300DD
:1003B0001D800E7420F5C780FE800674017AB3009C
:1003C0001D7EB3001D7E73001A1209FD12109A22C1
:1003D0007F707F517EC400007ED4024C7E9403E384
:1003E00002041D4005E47A7BB0227A7BB00B7C22AC
:1003F000540F2490D43440D430F30CBEB0414007A5
:10040000BEB05B500224204CCC68021BC00B84D3CE
:1004100089944CCC680B742012040780F5CA3B6D9C
:10042000889F337CAE7E5BB00B5C7007C37D38DA8F
:100430003B8994B42569C2F37E5BB00B5CA5F824BC
:10044000D0BEB00A501B7E500A20F60DAC5CA52D24
:100450007CCB70034EF00180DDAC5DA52D7CDB8094
:10046000D524CFBEB01AA5E850055E00DFD2F390C8
:100470000693A3E4936011BCB078F77414934CAB6B
:1004800030F6B34EF08080AEA3E4936010BCB07839
:10049000F77413937C3B741D937C2B89147CB08080
:1004A00013742012040720F205BEC00250F31B6D26
:1004B00029B600011204070204121B6E691600021D
:1004C0000B6A00BE08000078087E0400FF7E14104E
:1004D000E420F21E4CCC681A7F10E47E1B804C880E
:1004E00068070B1C04BCBD78F2C2F6CA0B1205F1FA
:1004F000DA0B7E0BB060C0CA0B120407DA0B0B0CD0
:100500004CDD68EE1BD078EA80ADD2F07E10108012
:10051000037E10085EB05F800AD2F67E100A800566
:100520007E100AC2F66D119F117E00201B6C7E6B3F
:100530007030F6021A3720F1051B6C7E6B6030F6C6
:10054000041A261A2430F0051B6D0B6A20A5EC3323
:1005500082F692F6500A7CEA9F229F217F127CAE9F
:100560004C44780F7C457C567C676C772E00F8787D
:10057000EF80122F117CB3337C3B9CB140047C3B59
:100580000B70A5D8EE7CB230E005DAB8C44C3BCA9B
:10059000380B207E00207E3000BE18000078C1BEDF
:1005A0001008780730F404C2F480B5CA287CB2BCC5
:1005B000BD38027CBD1205F1DA28BC2D500A1BD0D3
:1005C000E4CA281203F080F07CB213DAB84004C405
:1005D000CAB8C4CA28BEF08040095CDD7805A5DA37
:1005E0000260065EF07F1203F0DA28A5DADA020470
:1005F00012BEF001680F30F402240220F50620F745
:100600000330F6010420F229BCBC5025CAB87CBFD7
:1006100013B0E67420501174307C8A5E80F0680854
:100620001206315EA00F8003120407DAB8BCBC7852
:10063000DB30F40F7430120407745830F30274780E
:1006400012040730F605742D020407742B20F5F808
:10065000742020F7F3221B6C7E6BB010F1021B6C30
:1006600020F60B30E704F404D2F27CCB800520E7BF
:10067000057CDB0204365EF07F80F81B6E69160095
:10068000020B6A0030F0076D221B0A200B0D1B0ABB
:10069000800204212D2B204C4248232E0053584F1A
:1006A00044494355502A4E00042080010200104066
:1006B000BA0C111919A6200A567B04050505050474
:1006C000050506067A0F02507A1F024C7E1F025063
:1006D0004D2368097E1F024C120FCF4004C302074E
:1006E000EE7E1F024C7E14C8007E0400039F017E34
:1006F0001F0250BF102804C30207EE7E1CFFFF7AC2
:100700001F02587E1438007E0400FC7E1F024C2F0E
:10071000107A1F024C0207BF7E1F024C7E080001A8
:100720002F017A0F024C120EEB7AB3025C7E730239
:100730005C0A176D007E1F02586D316D207A1F0212
:10074000587D237E34000F5D326D220A376D227F83
:10075000012F002F007E3410E87E2400FF2F106947
:100760001100020B1A007E1F025874041E341E244E
:1007700050034E60801478F46D316D207A1F02585A
:100780007D237E34000F5D326D220A376D227F019A
:100790002F002F007E3410E87E2400FF2F106911F7
:1007A00000020B1A007E1F025874041E341E2450CF
:1007B000034E60801478F46D316D207A1F02587EEC
:1007C0001F02507E2800017F019F027A0F02504DC8
:1007D0002368030207187E1CFFFF7E0F02586D027C
:1007E0006D137E1F0254791100021B1A00D32220C0
:1007F00098030208C4C3C298E5997AB302C97E730C
:1008000002232C7B7A7302237EB3022214682E14F7
:10081000684714687B1478030208A80BB2680302C7
:1008200008C47EB302C97AB30223BEB02378057E22
:10083000700180026C777A7302220208C47E730210
:10084000C97A730021E47AB302217E6302227E70AA
:10085000012C767A730222806B7EA302C97E73021A
:10086000217E60012C677A6302210A277E340022F0
:100870002D327A39A07E6300217E730221BC76403E
:10088000437E6302227E70012C767A7302228034CA
:100890007EB302C9BEB02478897E6302227E7001D5
:1008A0002C767A730222801C7EB30223BEB00068CD
:1008B00003020822D3D2017E6302227E70012C76CD
:1008C0007A730222227AB302637A1702617A1F02D4
:1008D0005D7EB30263BEB00068097E1F025D120F29
:1008E000CF4003C3807C7E1F025D7E14C8007E045F
:1008F00000039F017E7302630A376D22BF10280335
:10090000C3805F7E1438007E0400FC7E1F025D2FD2
:10091000107A1F026480367E3702617E39B0BEB025
:10092000FF680E7E1F02647E1702617E19B0120EF0
:10093000B67E0F02647E1800012F107A1F02647EBB
:100940002702617E3400012D327A3702617EA302D4
:10095000637E70017CBA9CB77AB30263BEA0007854
:10096000B6D3227A0F027E7A1F027A7E14B8007EF6
:100970000400037E1F027ABF106804C30209FC1240
:1009800010D84003C3807574047E7001120FAD400F
:1009900003C3806874057E707F120FAD4003C3806F
:1009A0005B74087E1F027A120D534003C3804D749E
:1009B0000C7E1F027E120D534003C3803FE47E7005
:1009C00046120FAD4003C3803374017E7042120F94
:1009D000AD4003C3802674027E7053120FAD4003F6
:1009E000C3801974037E7031120FAD4003C3800CB5
:1009F000120B17BEB07F7803D38001C3227A730233
:100A0000BD7AB302BC74401210857AB302BE7EB3C5
:100A100002BC1210857E7302BE2C7B7A7302BE7EEE
:100A2000B302BD1210857E7302BE2C7B7A7302BEA8
:100A30007EB302BDBEB000683CE47AB302BF802939
:100A40007E7302BF0A277E3401212D327E39B01217
:100A500010857E7302BE2C7B7A7302BE7E6302BF5A
:100A60007E70012C767A7302BF7E6302BD7E7302B4
:100A7000BFBC7640CB74241210857E7302BE2C7BE3
:100A80007A7302BE7EB302BE64FF041210853099F1
:100A9000FD22D3A9D7BA90FFFC693E00020BEA20E1
:100AA0007A1F02B87E0F02B87E34CD347E2412AB9A
:100AB000BF017803D38001C3920053B1F774087E5D
:100AC00014FE137E04007E7E0B704C7B7A0B70123A
:100AD0000F8A1210ADA2B3E433BEB000681D20002F
:100AE0001A121040401543B108E47E34FE137E24F0
:100AF000007E7A1BB07420F5C780FE43B108E47E07
:100B000034FE137E24007E7A1BB09F1190FFFC7987
:100B10003E00021BEA2022E4121026BEB046680402
:100B200074FF80757401121026BEB042680474FF11
:100B300080677402121026BEB053680474FF805997
:100B40007403121026BEB031680474FF804B740425
:100B5000121026BEB001680474FF803D7408120CA8
:100B6000137E14B8007E040003BF10680474FF8075
:100B70002874051210267AB302C6BEB07F68167EAE
:100B8000B302C6BEB03F680D7EB302C6BEB01F68DA
:100B90000474FF80047EB302C6227A3702887E394D
:100BA000700A376D227C476C556D337A1F028A7E3E
:100BB0002400017E3702882D327E39700A376D227B
:100BC0007D036D117E1F028A4D314D207A1F028AEE
:100BD0007E2400027E3702882D327E39700A376DFE
:100BE000227C057C167C276C337E1F028A4D314D9A
:100BF000207A1F028A7E2400037E3702882D327EEF
:100C000039700A176D007E1F028A4D314D207A1F00
:100C1000028A227AB3029E1210260A3B6D227C477A
:100C20006C556D337A1F029F7EA3029E74012CBA0D
:100C30001210260A3B6D227D036D117E1F029F4D0F
:100C4000314D207A1F029F7EA3029E74022CBA129D
:100C500010260A3B6D227C057C167C276C337E1F98
:100C6000029F4D314D207A1F029F7EA3029E740386
:100C70002CBA1210260A1B6D007E1F029F4D314DAB
:100C8000207A1F029F227A0F0271120B177AB30289
:100C900079BEB07F680C7EB30279BEB03F6803C3F3
:100CA0008052740C120C137A1F02757E1F02717A27
:100CB0001F02547E1810007E14B8007E0400031238
:100CC00006C44003C3802D7E1F0271691100020B10
:100CD0001A007E1F0275BF016803C380177EB3022E
:100CE00079BEB07F780D74057E703F120FAD400362
:100CF000C38001D3227A1F026C7A0F0268120B178D
:100D00007AB30270BEB0FF78209F007E1F02687920
:100D10001100021B1A009F007E1F026C7911000255
:100D20001B1A007EB3027080297E14B8007E040076
:100D3000037E1F0268791100021B1A00740C120C4A
:100D4000137F017E1F026C791100021B1A007EB313
:100D50000270227A1F02A47AB302A37E1F02A47C2F
:100D600074120FAD4003C380417EA302A374012C13
:100D7000BA7E1F02A47C75120FAD4003C3802B7E88
:100D8000A302A374022CBA7E1F02A47C76120FADBC
:100D90004003C380157EA302A374032CBA7E1F02F6
:100DA000A4120FAD4003C38001D3227A0F02907AC0
:100DB00037028E7E1F02907C547E37028E7A395025
:100DC0007E1F02907E1400017E37028E2D317A390B
:100DD000507E1F02907C567E1400027E37028E2DBC
:100DE000317A39507E1F02907C577E1400037E3783
:100DF000028E2D317A3950227A1F02B4120FCF4061
:100E000003C380386D227E0F02B47E3401FF5D3152
:100E1000BD326803C380257E14C6007E0400037EB5
:100E20001F02B4BF102803C380127E1438007E0452
:100E300000FC7E1F02B42F10120F18D3227A1F025B
:100E400082120F186D337A37028680257E1702864C
:100E50006D007E1F02822F10120EEBBEB0FF6803E2
:100E6000C3801B7E2702867E3400012D327A370232
:100E7000867E2702867E340200BD2340CFD32230F7
:100E800000067E34FFE180047E34FFF47A3702C42A
:100E9000C3A9C08E7452F59853890FD3A9D68E7EFC
:100EA0005702C4F58B7E3702C47D530A5AF58DD3A1
:100EB000D28E12109A227AB302987A1F0294740288
:100EC000F5C57E1F02947CB5F5F67E1F02947CB6B4
:100ED000F5C37E2F0294F5C47EB30298F5C2745A0E
:100EE000F5C674A5F5C600000000227A1F02B07492
:100EF00001F5C57E1F02B07CB5F5F67E1F02B07C01
:100F0000B6F5C37E2F02B0F5C4745AF5C674A5F5C4
:100F1000C600000000E5C2227A1F02A87403F5C5CE
:100F20007E1F02A87CB5F5F67E1F02A87CB6F5C32D
:100F30007E2F02A8F5C4745AF5C674A5F5C6000044
:100F4000000022120B177AB302C8BEB01F7803D379
:100F500080147EB302C8BEB03F6803C38008740526
:100F60007E701F120FAD227AB3029D7A1F02997E06
:100F7000B3029D120EB67E1F0299120EEB7EA302E3
:100F80009DBCBA7803D38001C3226D337A3702C285
:100F9000800E7E2702C27E3400012D327A3702C2D3
:100FA0007E2702C27E347530BD2348E6227A730262
:100FB000C17AB302C07E7302C00A176D007E344648
:100FC000007E2400FC2F107EB302C1120F67227A2C
:100FD0001F02ACBE18100040137E14C8007E04002F
:100FE000037E1F02ACBF105003D38001C322121036
:100FF000709F007E3411287E2400FF1203D07E14DF
:1010000011287E0400FF1210BD22300004740480F9
:1010100001E4F5E9E4F5EAD3A9D7BA53B2FC53B138
:10102000FC7437F5C1227AB3001F7E73001F0A17C4
:101030006D007E3446007E2400FC2F10120EEB2241
:10104000120B177AB302C7BEB07F68097EB302C71E
:10105000BEB03F7803D38001C3227584017E44046F
:101060001FE47A49B01B4478F97EF802CA020FEEF9
:10107000120A9212100A120E7F43C1101207EF12C9
:10108000000380F5227AB302CA3099FDC3C2997E6B
:10109000B302CAF5997EB302CA22C3C201E47AB38D
:1010A0000221E47AB30222E47AB30223227480F5A7
:1010B000C7300004747C80027430F5F5226D3380F3
:1010C000020B347E0BB00B1470F722120B17BEB05C
:1010D0007F7803D38001C3227E3446007E2400FC47
:1010E000120E3D2228302900000000001DB71064B8
:1010F0003B6E20C826D930AC76DC41906B6B51F446
:101100004DB261585005713CEDB88320F00F934407
:10111000D6D6A3E8CB61B38C9B64C2B086D3D2D4BD
:0A112000A00AE278BDBDF21C300009
:00000001FF
